:1000000093C00000ADC00000ABC00000A9C000005C
:10001000A7C00000A5C00000A3C00000A1C0000050
:100020009FC000009DC000003EC5000001C500004B
:1000300097C0000095C0000093C0000091C0000070
:100040008FC000008DC000008BC0000089C0000080
:1000500087C0000085C0000083C0000081C0000090
:100060007FC000007DC000007BC0000079C00000A0
:1000700077C0000075C0000073C0000071C00000B0
:100080006FC000006DC000006BC0000069C00000C0
:1000900067C0000065C0000063C0000061C00000D0
:1000A0005FC000005DC000005BC0000012011001D5
:1000B00002000008EB03442000000102DC010902F9
:1000C0003E00020100C032090400000102020100EA
:1000D000052400100104240206052406000107057A
:1000E00082030800FF09040100020A00000007055E
:1000F000040210000507058302100005040309042B
:100100000E0374006D007000760061007200000044
:100110001603740070006100640034002D006D004F
:10012000650067006100000011241FBECFEFDAE018
:10013000DEBFCDBF11E0A0E0B1E0ECEBFAE102C020
:1001400005900D92AE37B107D9F711E0AEE7B1E0F7
:1001500001C01D92A23DB107E1F731D20C945C0DB4
:100160004FCF282F883090F430B381E090E002C068
:10017000880F991F2A95E2F7282F2095232320BB6B
:1001800020917E00822B80937E000895883029F490
:10019000549880917D00816031C0682F70E08B3071
:1001A000A0F44AB16350704021E030E0C901062E4E
:1001B00002C0880F991F0A94E2F7809584238AB9B8
:1001C00080917D006550704013C044B1675070400D
:1001D00021E030E0C901062E02C0880F991F0A9461
:1001E000E2F78095842384B980917D00615070404E
:1001F00002C0220F331F6A95E2F7822B80937D00A5
:100200000895FC01808991898170907080939B0191
:10021000089582E591E00C949B0982E591E00C94AD
:100220007409EF92FF920F931F93DF93CF93CDB793
:10023000DEB7C054D0400FB6F894DEBF0FBECDBFBE
:1002400080918001882309F5E0917E01F0917F0182
:10025000EE0FFF1FE359FE4F8081918180668093EE
:100260007C0090FF04C080917B00806203C080917D
:100270007B008F7D80937B0080917A0080648093E7
:100280007A0081E080938001C0C080917A0084FF71
:10029000BCC080917A00806180937A00E090780001
:1002A000F090790086E9E816F10410F4EE24FF24BA
:1002B00040917E0150917F019A01220F331FF90175
:1002C000EB54FE4F808191818E159F0509F48CC0FF
:1002D00080919B01882309F054C098EEE91693E0C1
:1002E000F90660F4F901E40FF51FEE0FFF1FDF01BF
:1002F000AF57BE4F11961C921E9212C0A0E4EA1690
:10030000AFE1FA06B0F4F901E40FF51FEE0FFF1F9D
:10031000DF01AF57BE4F8FEF93E011969C938E9302
:10032000ED57FE4F1182108215961C921E92149763
:1003300051C0D901A40FB51F88ECE81682E3F80676
:1003400080F4AA0FBB1FFD01EF57FE4F11821082F0
:10035000AD57BE4F8FEF93E08D939C93158214821F
:1003600039C0AA0FBB1FFD01EF57FE4F118210824B
:10037000AD57BE4F1D921C928FEF93E095838483FF
:1003800029C0ADB7BEB718970FB6F894BEBF0FBE61
:10039000ADBFEDB7FEB731968E010F5F1F4F1296BE
:1003A0001C930E93119780E091E093838283558391
:1003B0004483F782E6820E94960A8DB79EB708961C
:1003C0000FB6F8949EBF0FBE8DBFC8016DE971E0F6
:1003D0000E946E0AE0917E01F0917F01EE0FFF1FF7
:1003E000EB54FE4FF182E08280917E0190917F017B
:1003F000019690937F0180937E01049724F01092E0
:100400007F0110927E0110928001C05CDF4F0FB619
:10041000F894DEBF0FBECDBFCF91DF911F910F913A
:10042000FF90EF90089584B7877F84BF88E10FB66F
:10043000F89480936000109260000FBE80E090E01E
:1004400020E80FB6F89420936100809361000FBEFE
:10045000D7D214B896D185EA80937A0080E081DE05
:1004600081E07FDE84E07DDE85E07BDE8FEF85B995
:1004700008950F931F93282F8C3211F08A3001F5C5
:100480000BEA11E0C8010E94490A209199013091BC
:100490009A01F901EE0FFF1FE354FE4F9183808311
:1004A00088E0D8011D928A95E9F71092B401109264
:1004B000B3012F5F3F4F30939A01209399011EC0E3
:1004C0008091B3019091B401FC01E555FE4F20836A
:1004D00001969093B4018093B30108977CF0109239
:1004E000B4011092B30188E0EBEAF1E0DF011D9264
:1004F0008A95E9F710929A011092990180919901D9
:1005000090919A010497A4F110929A011092990186
:100510001092B4011092B3018091BD019091BE017F
:10052000FC01EE0FFF1FE80FF91FEE0FFF1FDF01A9
:10053000AF57BE4F8091BF019091C00111969C931F
:100540008E93ED57FE4F8091C1019091C20191832E
:1005500080838091C3019091C40115969C938E93E2
:10056000149788E0EDEBF1E0DF011D928A95E9F741
:100570001F910F910895CF93DF93C5E7D1E0899143
:100580009991FC01EE0FFF1FE80FF91FEE0FFF1FFF
:10059000DF01AF57BE4FED57FE4F6081718114965A
:1005A0004D915C9115978D919C9176D0C4D081E04E
:1005B000CD37D80721F7E2D0DF91CF9108951F936F
:1005C000CF93DF9330DF82E591E06DE971E0F4D500
:1005D000789411E026DECFDF80919B0190919C0101
:1005E000882381F0992309F046C010939C0187E08D
:1005F00091E06DE971E072D78DE091E06DE971E015
:100600006DD745C09923B9F11092820110928101F2
:10061000109284011092830110928601109285013C
:10062000109288011092870110928A01109289011C
:1006300010928C0110928B0110928E0110928D01FC
:100640001092900110928F011092920110929101DC
:1006500010929401109293011092960110929501BC
:10066000109298011092970110929C0110929A0199
:10067000109299010CC082E591E02DD5EC012097F4
:1006800031F082E591E05CD5F4DE2197F8CF82E588
:1006900091E0E5D50BD59ECFEF92FF920F931F937C
:1006A000EE24FF2487019C0184E02030380710F0FD
:1006B0002FEF33E0022F0295007F822F82958F70FB
:1006C000912F907F982B832F83708295807F9F7CC2
:1006D000192F182B9B0184E06030780710F02FEF62
:1006E00033E0922F990F990F8F2D8370F82EF92AEE
:1006F000822F8295869586958370902F9C7F982B6C
:10070000832F8370880F880F937F092F082BCA01CE
:1007100024E04030520710F08FEF93E0E82E892F4D
:1007200083707F2D7C7F782B6E2DC8011F910F91D8
:10073000FF90EF9008959B01AC016FE170E0E1E064
:10074000DA01C901062E04C0B695A795979587953D
:100750000A94D2F781709070892B11F05B9A01C0D6
:100760005B988BB18E278BB98BB18E278BB961507B
:1007700070408FEF6F3F780719F708955A9A5A988B
:100780000895539A529A519A509A59980895DA01B5
:10079000923049F0933061F09130F9F4ECEAF0E0F6
:1007A00022E130E01EC0EEEBF0E02EE330E019C0B5
:1007B000813049F0813018F0823079F408C0ECEFD4
:1007C000F0E0849107C0E0E0F1E0849103C0E0E153
:1007D000F1E08491282F30E004C0E0E0F0E020E078
:1007E00030E0ED93FC93C9010895382F282F2EC0D7
:1007F000822F8F708093E900231721F4942F762F96
:1008000050E006C07091EC009091ED005091F00026
:1008100091FF1BC08091EB008E7F8093EB00809155
:10082000ED008D7F8093ED008091EB0081608093DF
:10083000EB007093EC009093ED005093F0008091EA
:10084000EE0087FD02C080E008952F5F273080F220
:100850003F703093E90081E008950F931F93CF9389
:10086000DF93062FEC0110E02AC09881992329F12B
:100870006B81E981FA812C81892F8F70873018F57F
:10088000223010F452E001C056E040E028E030E0B1
:1008900003C04F5F220F331F2E173F07D0F362951F
:1008A000660F660F607C991F9927991F692B4295E7
:1008B000407F452B9ADF882331F01F5F2596101764
:1008C000A0F281E001C080E0DF91CF911F910F91F4
:1008D00008958091CA0188239CF404C08091C901C5
:1008E0008823B9F08091E80082FFF8CF8091E8007A
:1008F0008B778093E80008958091C901882349F09F
:100900008091E80080FFF8CF8091E8008E77809397
:10091000E80008954091E4005091E50024E68091BC
:10092000EC0080FF24C08091E80080FD1EC0809113
:10093000C901882311F482E00895853011F483E021
:1009400008958091EB0085FF02C081E008958091B9
:10095000E4009091E5008417950709F3222311F430
:1009600084E008952150AC01DACF80E008958091B1
:10097000E80082FFDCCFF9CFEF92FF920F931F9335
:100980004AD051D008ED10E0F80180818F77808344
:1009900080818068808380818F7D808319BC1092E4
:1009A000C9011092C5011092C7011092C60180EED4
:1009B000E82EF12CF70180818B7F8083F801808104
:1009C0008160808380E060E042E00FDFE1EEF0E0F4
:1009D00080818E7F8083E2EEF0E080818160808381
:1009E000808188608083F70180818E7F8083F80119
:1009F0008081806180831F910F91FF90EF90089517
:100A0000E7EDF0E080818160808384E082BF81E057
:100A10008093C801B1CFE8EDF0E080818E7F8083C4
:100A20001092E20008951092DA001092E100089509
:100A30001F920F920FB60F9211241F932F933F9383
:100A40004F935F936F937F938F939F93AF93BF93D6
:100A5000EF93FF931091E9008091EC001092E90070
:100A60008091F000877F8093F0007894B3D110924A
:100A7000E9008091F00088608093F0001F7010936F
:100A8000E900FF91EF91BF91AF919F918F917F917D
:100A90006F915F914F913F912F911F910F900FBEDA
:100AA0000F901F9018951F920F920FB60F9211245E
:100AB0002F933F934F935F936F937F938F939F9366
:100AC000AF93BF93EF93FF938091E10082FF0AC041
:100AD0008091E20082FF06C08091E1008B7F8093CD
:100AE000E100E3D28091DA0080FF1DC08091D80040
:100AF00080FF19C08091DA008E7F8093DA008091A8
:100B0000D90080FF0CC080E189BD82E189BD09B4B4
:100B100000FEFDCF81E08093C901C7D204C019BC9B
:100B20001092C901C2D28091E10080FF18C080916B
:100B3000E20080FF14C08091E2008E7F8093E2008B
:100B40008091E20080618093E2008091D800806211
:100B50008093D80019BC85E08093C901A6D280910A
:100B6000E10084FF2DC08091E20084FF29C080E174
:100B700089BD82E189BD09B400FEFDCF8091D80016
:100B80008F7D8093D8008091E1008F7E8093E1007B
:100B90008091E2008F7E8093E2008091E20081608C
:100BA0008093E2008091C501882331F48091E300B5
:100BB00087FD02C081E001C084E08093C90175D245
:100BC0008091E10083FF27C08091E20083FF23C072
:100BD0008091E100877F8093E10082E08093C901EA
:100BE0001092C5018091E1008E7F8093E100809199
:100BF000E2008E7F8093E2008091E200806180932A
:100C0000E20080E060E042E0F0DD8091F00088608A
:100C10008093F0004AD2FF91EF91BF91AF919F91E5
:100C20008F917F916F915F914F913F912F910F9095
:100C30000FBE0F901F9018959C014091D0015091CC
:100C4000D1014617570718F4F90190E045C0611526
:100C5000710511F0AB01F8CF8091E8008E77809399
:100C6000E80040E050E0F0CF8091C901882309F40A
:100C700045C0853009F444C08091E80083FF02C07C
:100C800081E008958091E80082FD32C08091E80003
:100C900080FF22C08091F3009091F200782F60E0F5
:100CA000292F30E0262B372B07C081918093F1004C
:100CB000415050402F5F3F4F4115510519F02830EA
:100CC000310598F390E02830310509F491E08091E6
:100CD000E8008E778093E8004115510529F69923A5
:100CE00019F606C08091C901882341F0853041F092
:100CF0008091E80082FFF6CF80E0089582E00895B9
:100D000083E008959C014091D0015091D101461794
:100D1000570718F4F90190E046C06115710511F00C
:100D2000AB01F8CF8091E8008E778093E80040E037
:100D300050E0F0CF8091C901882309F447C0853085
:100D400009F446C08091E80083FF02C081E0089565
:100D50008091E80082FD34C08091E80080FF23C0CC
:100D60008091F3009091F200782F60E0292F30E01D
:100D7000262B372B08C084918093F1003196415087
:100D800050402F5F3F4F4115510519F02830310574
:100D900090F390E02830310509F491E08091E8006B
:100DA0008E778093E8004115510521F6992309F0CB
:100DB000C1CF06C08091C901882341F0853041F040
:100DC0008091E80082FFF6CF80E0089582E00895E8
:100DD00083E008950F931F93DF93CF93CDB7DEB7D2
:100DE000AC970FB6F894DEBF0FBECDBFEAECF1E0D2
:100DF0008091F100819321E0E23DF207C9F709DA21
:100E00008091E80083FF38C18091CA013091CB0105
:100E1000353009F487C0363040F43130C9F1313013
:100E200070F0333009F028C133C0383009F4F6C00F
:100E3000393009F405C1363009F01EC197C0803839
:100E400021F0823809F018C108C09091C601809144
:100E5000C701882399F0926011C08091CE018F70F4
:100E60008093E9008091EB0090E025E096958795CE
:100E70002A95E1F7982F91701092E9008091E8008F
:100E8000877F8093E8009093F1001092F100D1C029
:100E9000882319F0823009F0EFC090E08F719070D4
:100EA000009721F0029709F0E7C00CC08091CC01B7
:100EB000813009F0E1C01092C701333069F58093A9
:100EC000C7012AC08091CC01882331F52091CE0141
:100ED0002F7009F4D1C02093E9008091EB0080FFCE
:100EE0001BC0333021F48091EB00806213C08091ED
:100EF000EB0080618093EB0081E090E002C0880FFE
:100F0000991F2A95E2F78093EA001092EA008091F7
:100F1000EB0088608093EB001092E9008091E8007C
:100F2000877F8AC0882309F0A7C01091CC011F7762
:100F30000FB7F8948091E800877F8093E800C9DCC0
:100F40008091E80080FFFCCF8091E3008078812BC6
:100F50008093E30080688093E300112311F482E022
:100F600001C083E08093C9010FBF86C080588230E2
:100F700008F082C08091CC019091CD0123E08C3D9E
:100F8000920709F033C083E08C838AE28B837FB7BA
:100F9000F894DE0115966EE040E050E011E2E62F95
:100FA000F0E010935700849140FF03C082958F704A
:100FB0006F5F8F70282F30E08A3018F0C901C79614
:100FC00002C0C901C0968D939D934F5F5F4F44311E
:100FD000510529F77FBF8091E800877F8093E80063
:100FE000CE0103966AE270E027DE12C06091CE0166
:100FF000AE014F5F5F4FCBDBBC01009709F43CC0F3
:101000008091E800877F8093E80089819A817ADE69
:101010008091E8008B778093E8002EC0803861F5DE
:101020008091E800877F8093E8008091C5018093DC
:10103000F1008091E8008E778093E8004ADC1CC0C4
:101040008823D1F49091CC019230B0F48091E800E3
:10105000877F8093E8009093C5013BDC8091C501B8
:10106000882331F48091E30087FD02C081E001C054
:1010700084E08093C901D1D88091E80083FF0AC041
:101080008091EB0080628093EB008091E800877F85
:101090008093E800AC960FB6F894DEBF0FBECDBFCC
:1010A000CF91DF911F910F91089508951F93809123
:1010B000C901882371F01091E9008091EC00109231
:1010C000E9008091E80083FF01C084DE1F70109367
:1010D000E9001F910895FC018091C901843061F5F8
:1010E00084899589A689B7890097A105B10521F161
:1010F00086818F708093E9008091E80082FF1CC098
:101100004091F3002091F200942F80E030E0822B98
:10111000932B892B31F48091E8008B778093E80042
:101120000BC08091F3009091F200382F20E0492FFE
:1011300050E0422B532B02C040E050E0CA0108951A
:10114000FC018091C901843099F584899589A6892B
:10115000B7890097A105B10559F186818F708093F9
:10116000E9008091E80082FF23C04091F3002091C4
:10117000F200942F80E030E0822B932B892B19F41E
:101180006FEF7FEF04C08091F100682F70E0409115
:10119000F3002091F200942F80E030E0822B932B1B
:1011A000892B41F48091E8008B778093E80002C09E
:1011B0006FEF7FEFCB010895FB012EE0DB011D9265
:1011C0002A95E9F723E0238325E639E03187208754
:1011D0002FEE38E033872287958784870895FC01B6
:1011E00084859585ADDF9C0197FF02C02EEF3FEF10
:1011F000C90108950895FC018091C901843051F519
:1012000084899589A689B7890097A105B10511F14F
:1012100081818F708093E9004091F3002091F2006A
:10122000942F80E030E0822B932B892BA9F09091B2
:10123000E8008091E8008E778093E80095FD0CC06F
:1012400069DB982F882349F48091E8008E7780939A
:10125000E80003C092E001C090E0892F0895FC01EE
:101260008091C901843051F484899589A689B78910
:101270000097A105B10511F0CF01BDCF08951F93CF
:10128000FC01162F8091C9018430E1F4848995898D
:10129000A689B7890097A105B105A1F081818F705A
:1012A0008093E9008091E80085FD08C08091E80006
:1012B0008E778093E8002EDB882329F41093F100C9
:1012C00080E001C082E01F910895282FFB018485F2
:1012D0009585622FD4DF882319F420E030E002C026
:1012E0002FEF3FEFC9010895CF93DF93EC014096B4
:1012F000FC018BE0DF011D928A95E9F782E08C8387
:10130000898783E08E87CE01019661E0A6DA882383
:1013100071F0CE01069661E0A0DA882341F0CE019B
:101320000B9661E09ADA882319F081E001C080E031
:10133000DF91CF910895CF93DF93EC018091E80086
:1013400083FFA4C0888190E02091CE013091CF012D
:101350002817390709F09AC08091CB01813269F0D2
:10136000823220F4803209F091C03CC0823209F40C
:101370006BC0833209F08AC07BC08091CA01813A78
:1013800009F084C08091E800877F8093E800809115
:10139000E80080FFFCCF8C899D89AE89BF8980934E
:1013A000F100292F3A2F4B2F55272093F1009D0153
:1013B000442755272093F1008B2F9927AA27BB2775
:1013C0008093F100888D8093F100898D8093F100E6
:1013D0008A8D8093F1008091E8008E778093E800F9
:1013E00078DA54C08091CA01813209F04FC08091EF
:1013F000E800877F8093E80005C08091C9018823B9
:1014000009F444C08091E80082FFF7CF8091F10099
:101410009091F1002091F1003091F1008C8B9D8B27
:101420002E8B3F8B8091F100888F8091F100898F06
:101430008091F1008A8F8091E8008B778093E8009B
:1014400048DACE01D7DE22C08091CA018132F1F4A0
:101450008091E800877F8093E8003BDA8091CC019F
:101460009091CD01998B888BCE010E9401010EC015
:101470008091CA01813251F48091E800877F809386
:10148000E80027DACE016091CC01B4DEDF91CF9184
:101490000895FC0188279927E89421912032E9F3E7
:1014A000293010F02E30C8F32B3239F02D3231F4C0
:1014B000689403C00BD0820F911D219120532A30D4
:1014C000C8F31EF4909581959F4F08957AE0979FF9
:1014D000902D879F802D910D11240895EF92FF92FA
:1014E0000F931F93CF93DF937C018B01DB01139646
:1014F0008C9181FD03C0CFEFDFEF13C0C0E0D0E0DF
:101500000BC0D8011896ED91FC911997B801099577
:10151000892B11F0CFEFDFEFF70181917F01882355
:1015200081F7CE01CDB7DEB7E6E0B7C2AEE0B0E0FE
:10153000EBE9FAE098C20D891E8986E08C831A8354
:1015400009838FEF9FE79E838D839E01275E3F4F28
:10155000CE0101966F89788DA90109D02F81388538
:10156000020F131FF80110822E96E4E098C2ABE040
:10157000B0E0ECEBFAE069C23C012B015A01FC013E
:1015800017821682838181FD03C06FEF7FEFB9C19F
:101590009AE0892E1E010894211C311CF30123813D
:1015A000F20123FD859123FF81912F01882309F406
:1015B000A5C1853239F423FD859123FF81912F0147
:1015C000853221F490E0B301B6D1E8CF982FFF2403
:1015D000EE249924FFE1FF15D0F09B3269F09C3294
:1015E00028F4903259F0933291F40EC09D3249F0B4
:1015F000903369F441E024C052E0F52A84E0F82AEF
:1016000028C098E0F92A25C0E0E1FE2A22C0F7FCB4
:1016100029C0892F80538A3070F4F6FE05C0989C4B
:10162000902C1124980E15C0E89CE02C1124E80E93
:10163000F0E2FF2A0EC09E3229F4F6FC5FC140E4BE
:10164000F42A07C09C3619F450E8F52A02C09836EF
:1016500049F4F20123FD959123FF91912F019923E4
:1016600009F0B8CF892F8554833018F08052833029
:1016700038F444E050E0A40EB51E5FE359830FC078
:10168000933631F0933779F0933509F052C01FC08B
:10169000F5018081898342E050E0A40EB51E61010E
:1016A00001E010E011C0F501C080D180F6FC03C05C
:1016B0006FEF7FEF02C0692D70E042E050E0A40EB2
:1016C000B51EC6012DD18C015FE7F52213C0F501CF
:1016D000C080D180F6FC03C06FEF7FEF02C0692DA0
:1016E00070E042E050E0A40EB51EC6010ED18C01A0
:1016F00050E8F52AF3FE06C018C080E290E0B3017E
:101700001AD1EA948E2D90E008171907B0F30DC096
:10171000F601F7FC8591F7FE81916F0190E0B3012E
:101720000AD1E110EA94015010400115110581F72A
:10173000E2C0943611F0993661F5F7FE08C0F50164
:10174000208131814281538184E090E00AC0F5011B
:10175000808191819C01442737FD4095542F82E080
:1017600090E0A80EB91E9FE6F92257FF09C05095D8
:101770004095309521953F4F4F4F5F4FE0E8FE2A4F
:10178000CA01B901A1012AE030E001D1D82ED21856
:101790003FC0953729F41F2D1F7E2AE030E01DC081
:1017A0001F2D197F9F3661F0903720F4983509F08E
:1017B000A5C00FC0903739F0983709F09FC004C01A
:1017C00028E030E00AC0106114FD146020E130E030
:1017D00004C014FD166020E132E017FF08C0F501D7
:1017E000608171818281938144E050E008C0F501FD
:1017F00080819181BC0180E090E042E050E0A40E45
:10180000B51EA101C4D0D82ED2188FE7F82EF12230
:10181000F6FE0BC05EEFF522D91438F4F4FE07C0D3
:10182000F2FC05C08FEEF82202C01D2D01C0192D5B
:10183000F4FE0DC0FE01ED0DF11D8081803319F421
:1018400099EEF92208C01F5FF2FE05C003C08F2D7C
:10185000867809F01F5F0F2DF3FC13C0F0FE0EC059
:101860001E1510F09D2C0AC09D2C9E0C911A1E2D49
:1018700005C080E290E0B3015ED01F5F1E15C8F383
:1018800004C01E1510F4E11A01C0EE2404FF0EC0BE
:1018900080E390E0B3014FD002FF1BC001FD03C005
:1018A00088E790E00EC088E590E00BC0802F867836
:1018B00081F001FF02C08BE201C080E2F7FC8DE203
:1018C00090E0B30138D005C080E390E0B30133D09D
:1018D0009A94D914C8F3DA94F101ED0DF11D8081C9
:1018E00090E0B30128D0DD20B1F705C080E290E0A0
:1018F000B30121D0EA94EE20C9F750CEF3016681FE
:101900007781CB012B96E2E1BCC0FC0105906150D0
:1019100070400110D8F7809590958E0F9F1F089505
:10192000FC016150704001900110D8F780959095AE
:101930008E0F9F1F08950F931F93CF93DF938C01FA
:10194000EB018B8181FF1BC082FF0DC02E813F8187
:101950008C819D812817390764F4E881F98101930E
:10196000F983E88306C0E885F985802F0995892BDE
:1019700031F48E819F8101969F838E8302C00FEF89
:101980001FEFC801DF91CF911F910F910895FA01C8
:10199000AA27283051F1203181F1E8946F936E7FAE
:1019A0006E5F7F4F8F4F9F4FAF4FB1E03ED0B4E09F
:1019B0003CD0670F781F891F9A1FA11D680F791FE0
:1019C0008A1F911DA11D6A0F711D811D911DA11DF1
:1019D00020D009F468943F912AE0269F1124301901
:1019E000305D3193DEF6CF010895462F4770405D9C
:1019F0004193B3E00FD0C9F7F6CF462F4F70405D4B
:101A00004A3318F0495D31FD4052419302D0A9F7A5
:101A1000EACFB4E0A6959795879577956795BA959F
:101A2000C9F700976105710508959B01AC010A2E65
:101A300006945795479537952795BA95C9F7620F3C
:101A4000731F841F951FA01D08952F923F924F92E0
:101A50005F926F927F928F929F92AF92BF92CF923E
:101A6000DF92EF92FF920F931F93CF93DF93CDB747
:101A7000DEB7CA1BDB0B0FB6F894DEBF0FBECDBFBF
:101A800009942A88398848885F846E847D848C8490
:101A90009B84AA84B984C884DF80EE80FD800C8199
:101AA0001B81AA81B981CE0FD11D0FB6F894DEBF7C
:0C1AB0000FBECDBFED010895F894FFCFEC
:101ABC0025642C25750A00747061640A007B226E03
:101ACC00616D65223A202274706164342D6D6567F6
:101ADC0061222C202276657273696F6E223A223055
:101AEC002E302E31222C20226C656473223A7472B3
:101AFC0075652C20227061647322203A2034207D7D
:101B0C000A0000831000000104100000018208008C
:101B1C0000010000000000000000000000000001B7
:0E1B2C0000040005000200030001000000009C
:00000001FF
